{
  "_format": "hh-sol-artifact-1",
  "contractName": "VestingWallet",
  "sourceName": "contracts/finance/VestingWallet.sol",
  "abi": [
    {
      "inputs": [
        {
          "internalType": "address",
          "name": "beneficiaryAddress",
          "type": "address"
        },
        {
          "internalType": "uint64",
          "name": "startTimestamp",
          "type": "uint64"
        },
        {
          "internalType": "uint64",
          "name": "durationSeconds",
          "type": "uint64"
        }
      ],
      "stateMutability": "nonpayable",
      "type": "constructor"
    },
    {
      "anonymous": false,
      "inputs": [
        {
          "indexed": true,
          "internalType": "address",
          "name": "token",
          "type": "address"
        },
        {
          "indexed": false,
          "internalType": "uint256",
          "name": "amount",
          "type": "uint256"
        }
      ],
      "name": "ERC20Released",
      "type": "event"
    },
    {
      "anonymous": false,
      "inputs": [
        {
          "indexed": false,
          "internalType": "uint256",
          "name": "amount",
          "type": "uint256"
        }
      ],
      "name": "EtherReleased",
      "type": "event"
    },
    {
      "inputs": [],
      "name": "beneficiary",
      "outputs": [
        {
          "internalType": "address",
          "name": "",
          "type": "address"
        }
      ],
      "stateMutability": "view",
      "type": "function"
    },
    {
      "inputs": [],
      "name": "duration",
      "outputs": [
        {
          "internalType": "uint256",
          "name": "",
          "type": "uint256"
        }
      ],
      "stateMutability": "view",
      "type": "function"
    },
    {
      "inputs": [
        {
          "internalType": "address",
          "name": "token",
          "type": "address"
        }
      ],
      "name": "release",
      "outputs": [],
      "stateMutability": "nonpayable",
      "type": "function"
    },
    {
      "inputs": [],
      "name": "release",
      "outputs": [],
      "stateMutability": "nonpayable",
      "type": "function"
    },
    {
      "inputs": [],
      "name": "released",
      "outputs": [
        {
          "internalType": "uint256",
          "name": "",
          "type": "uint256"
        }
      ],
      "stateMutability": "view",
      "type": "function"
    },
    {
      "inputs": [
        {
          "internalType": "address",
          "name": "token",
          "type": "address"
        }
      ],
      "name": "released",
      "outputs": [
        {
          "internalType": "uint256",
          "name": "",
          "type": "uint256"
        }
      ],
      "stateMutability": "view",
      "type": "function"
    },
    {
      "inputs": [],
      "name": "start",
      "outputs": [
        {
          "internalType": "uint256",
          "name": "",
          "type": "uint256"
        }
      ],
      "stateMutability": "view",
      "type": "function"
    },
    {
      "inputs": [
        {
          "internalType": "uint64",
          "name": "timestamp",
          "type": "uint64"
        }
      ],
      "name": "vestedAmount",
      "outputs": [
        {
          "internalType": "uint256",
          "name": "",
          "type": "uint256"
        }
      ],
      "stateMutability": "view",
      "type": "function"
    },
    {
      "inputs": [
        {
          "internalType": "address",
          "name": "token",
          "type": "address"
        },
        {
          "internalType": "uint64",
          "name": "timestamp",
          "type": "uint64"
        }
      ],
      "name": "vestedAmount",
      "outputs": [
        {
          "internalType": "uint256",
          "name": "",
          "type": "uint256"
        }
      ],
      "stateMutability": "view",
      "type": "function"
    },
    {
      "stateMutability": "payable",
      "type": "receive"
    }
  ],
  "bytecode": "0x60e060405234801561001057600080fd5b50604051610c86380380610c8683398101604081905261002f916100ec565b6001600160a01b03831661009c5760405162461bcd60e51b815260206004820152602a60248201527f56657374696e6757616c6c65743a2062656e6566696369617279206973207a65604482015269726f206164647265737360b01b606482015260840160405180910390fd5b60609290921b6001600160601b03191660805260c090811b6001600160c01b031990811660a05291811b909116905261013b565b80516001600160401b03811681146100e757600080fd5b919050565b600080600060608486031215610100578283fd5b83516001600160a01b0381168114610116578384fd5b9250610124602085016100d0565b9150610132604085016100d0565b90509250925092565b60805160601c60a05160c01c60c05160c01c610af861018e6000396000818160d80152818161047c01526104d101526000610434015260008181610142015281816102ca01526104010152610af86000f3fe60806040526004361061008a5760003560e01c8063810ec23b11610059578063810ec23b1461016c57806386d1a69f1461018c57806396132521146101a15780639852595c146101b6578063be9a6555146101ec57610091565b80630a17b06b146100965780630fb5a6b4146100c9578063191655871461010657806338af3eed1461012857610091565b3661009157005b600080fd5b3480156100a257600080fd5b506100b66100b13660046109a5565b610201565b6040519081526020015b60405180910390f35b3480156100d557600080fd5b507f000000000000000000000000000000000000000000000000000000000000000067ffffffffffffffff166100b6565b34801561011257600080fd5b50610126610121366004610921565b610227565b005b34801561013457600080fd5b506040516001600160a01b037f00000000000000000000000000000000000000000000000000000000000000001681526020016100c0565b34801561017857600080fd5b506100b661018736600461093b565b6102f3565b34801561019857600080fd5b5061012661039a565b3480156101ad57600080fd5b506000546100b6565b3480156101c257600080fd5b506100b66101d1366004610921565b6001600160a01b031660009081526001602052604090205490565b3480156101f857600080fd5b506100b6610429565b600061021f61020f60005490565b6102199047610a0e565b83610457565b90505b919050565b6001600160a01b03811660009081526001602052604081205461024a83426102f3565b6102549190610a65565b6001600160a01b038316600090815260016020526040812080549293508392909190610281908490610a0e565b90915550506040518181526001600160a01b038316907fc0e523490dd523c33b1878c9eb14ff46991e3f5b2cd33710918618f2a39cba1b9060200160405180910390a26102ef827f000000000000000000000000000000000000000000000000000000000000000083610531565b5050565b6001600160a01b038216600090815260016020526040812054610391906040516370a0823160e01b81523060048201526001600160a01b038616906370a082319060240160206040518083038186803b15801561034f57600080fd5b505afa158015610363573d6000803e3d6000fd5b505050506040513d601f19601f82011682018060405250810190610387919061098d565b6102199190610a0e565b90505b92915050565b600080546103a742610201565b6103b19190610a65565b9050806000808282546103c49190610a0e565b90915550506040518181527fda9d4e5f101b8b9b1c5b76d0c5a9f7923571acfc02376aa076b75a8c080c956b9060200160405180910390a16104267f000000000000000000000000000000000000000000000000000000000000000082610588565b50565b67ffffffffffffffff7f00000000000000000000000000000000000000000000000000000000000000001690565b6000610461610429565b8267ffffffffffffffff16101561047a57506000610394565b7f000000000000000000000000000000000000000000000000000000000000000067ffffffffffffffff166104ad610429565b6104b79190610a0e565b8267ffffffffffffffff1611156104cf575081610394565b7f000000000000000000000000000000000000000000000000000000000000000067ffffffffffffffff16610502610429565b6105169067ffffffffffffffff8516610a65565b6105209085610a46565b61052a9190610a26565b9050610394565b604080516001600160a01b038416602482015260448082018490528251808303909101815260649091019091526020810180516001600160e01b031663a9059cbb60e01b1790526105839084906106a6565b505050565b804710156105dd5760405162461bcd60e51b815260206004820152601d60248201527f416464726573733a20696e73756666696369656e742062616c616e636500000060448201526064015b60405180910390fd5b6000826001600160a01b03168260405160006040518083038185875af1925050503d806000811461062a576040519150601f19603f3d011682016040523d82523d6000602084013e61062f565b606091505b50509050806105835760405162461bcd60e51b815260206004820152603a60248201527f416464726573733a20756e61626c6520746f2073656e642076616c75652c207260448201527f6563697069656e74206d6179206861766520726576657274656400000000000060648201526084016105d4565b60006106fb826040518060400160405280602081526020017f5361666545524332303a206c6f772d6c6576656c2063616c6c206661696c6564815250856001600160a01b03166107789092919063ffffffff16565b8051909150156105835780806020019051810190610719919061096d565b6105835760405162461bcd60e51b815260206004820152602a60248201527f5361666545524332303a204552433230206f7065726174696f6e20646964206e6044820152691bdd081cdd58d8d9595960b21b60648201526084016105d4565b60606107878484600085610791565b90505b9392505050565b6060824710156107f25760405162461bcd60e51b815260206004820152602660248201527f416464726573733a20696e73756666696369656e742062616c616e636520666f6044820152651c8818d85b1b60d21b60648201526084016105d4565b843b6108405760405162461bcd60e51b815260206004820152601d60248201527f416464726573733a2063616c6c20746f206e6f6e2d636f6e747261637400000060448201526064016105d4565b600080866001600160a01b0316858760405161085c91906109bf565b60006040518083038185875af1925050503d8060008114610899576040519150601f19603f3d011682016040523d82523d6000602084013e61089e565b606091505b50915091506108ae8282866108b9565b979650505050505050565b606083156108c857508161078a565b8251156108d85782518084602001fd5b8160405162461bcd60e51b81526004016105d491906109db565b80356001600160a01b038116811461022257600080fd5b803567ffffffffffffffff8116811461022257600080fd5b600060208284031215610932578081fd5b610391826108f2565b6000806040838503121561094d578081fd5b610956836108f2565b915061096460208401610909565b90509250929050565b60006020828403121561097e578081fd5b8151801515811461078a578182fd5b60006020828403121561099e578081fd5b5051919050565b6000602082840312156109b6578081fd5b61039182610909565b600082516109d1818460208701610a7c565b9190910192915050565b60006020825282518060208401526109fa816040850160208701610a7c565b601f01601f19169190910160400192915050565b60008219821115610a2157610a21610aac565b500190565b600082610a4157634e487b7160e01b81526012600452602481fd5b500490565b6000816000190483118215151615610a6057610a60610aac565b500290565b600082821015610a7757610a77610aac565b500390565b60005b83811015610a97578181015183820152602001610a7f565b83811115610aa6576000848401525b50505050565b634e487b7160e01b600052601160045260246000fdfea26469706673582212200b22c9d53330866559211c3a2e7cc0af532123c7bb743d1667d9dfe8410469fb64736f6c63430008030033",
  "linkReferences": {},
  "deployedLinkReferences": {}
}